:1000000009C021C020C01FC01EC01DC01DC01BC014
:100010001AC019C011241FBECFE9CDBF10E0A0E661
:10002000B0E0EAEDF3E002C005900D92A236B10710
:10003000D9F720E0A2E6B0E001C01D92A738B207D0
:10004000E1F79BD0C8C1DCCF1F920F920FB60F9281
:10005000112412BE0F900FBE0F901F9018959B0198
:10006000220F331F620F731FB89A28B32E7F38B345
:1000700031604FB7F8946115710591F0FC01680F7C
:10008000791F819198E038BB000087FF28BB880F5B
:10009000000028BB00C09A95B1F7E617F70789F76B
:1000A0004FBF789408959B01220F331F620F731F77
:1000B00027B3242B27BB28B3342F3095232338B301
:1000C000432B3FB7F8946115710591F0FC01680F5F
:1000D000791F819198E048BB000087FF28BB880FFB
:1000E000000028BB00C09A95B1F7E617F70789F71B
:1000F0003FBF78940895B89A28B32E7F38B3316003
:100100004FB7F8946115710591F0FC01680F791FE4
:10011000819198E038BB000087FF28BB880F000062
:1001200028BB00C09A95B1F7E617F70789F74FBFCC
:100130007894089527B3242B27BB28B3342F309508
:10014000232338B3432B3FB7F8946115710591F021
:10015000FC01680F791F819198E048BB000087FF80
:1001600028BB880F000028BB00C09A95B1F7E6179E
:10017000F70789F73FBF7894089582E08FBD84E048
:1001800089BF85E286BF85B7877E85BF7894CCE03E
:10019000EC2EF12CD5E07D2E14E0412EC0906200B3
:1001A000C3E6D0E000E010E092C06A3A08F4A3C0D1
:1001B0006A5A1982862F880F860F8883862F880FA8
:1001C000880F681B88248A94860E8A82912CA12C21
:1001D000B12CA5019401C501B401BDD0A5019401C4
:1001E000BAD0DC01CB019058AF4FBF4FCD01AA2749
:1001F000BB279C0122953295307F3227207F322702
:10020000A901481B590BCA019A0122953295307FEA
:100210003227207F3227820F931FD92E8980912C7D
:10022000A12CB12CA5019401C501B40194D0A50164
:10023000940191D0DC01CB019058AF4FBF4FCD015D
:10024000AA27BB279C0122953295307F3227207F39
:100250003227A901481B590BCA019A0122953295F0
:10026000307F3227207F3227820F931F9983888027
:10027000912CA12CB12CA5019401C501B4016BD026
:10028000A501940168D0DC01CB019058AF4FBF4F5E
:10029000CD01AA27BB279C0122953295307F3227BA
:1002A000207F3227A901481B590BCA019A012295C8
:1002B0003295307F3227207F3227820F931F988319
:1002C000DA821395239601155CE0150721F1C80128
:1002D000B7015AD06C0D653508F067CF862F880FAF
:1002E000860F8983862F880F880F681B615068836B
:1002F0001A82D12C93CF6555862F880F880F462FF1
:10030000481B842F815089831882862E880C680DA3
:100310006A83862E5BCFC394C092620070926000A5
:100320006CE070E083E690E09ADE43BE07C085B7DC
:10033000806285BF889585B78F7D85BF809160007D
:100340009FEF980F909360008111F1CF83B78B7F5F
:1003500083BF12BE23CFEE27FF27AA27BB2708C0E3
:10036000A20FB31FE41FF51F220F331F441F551F99
:10037000969587957795679598F37040A9F70097BC
:1003800099F7BD01CF01089597FB072E16F400944D
:1003900006D077FD08D00BD007FC05D03EF4909531
:1003A00081959F4F0895709561957F4F0895AA1B81
:1003B000BB1B51E107C0AA1FBB1FA617B70710F050
:1003C000A61BB70B881F991F5A95A9F78095909582
:0A03D000BC01CD010895F894FFCFA1
:0203DA0005001C
:00000001FF
